{
  "contractName": "GGCToken",
  "abi": [
    {
      "constant": true,
      "inputs": [],
      "name": "name",
      "outputs": [
        {
          "name": "",
          "type": "string"
        }
      ],
      "payable": false,
      "stateMutability": "view",
      "type": "function"
    },
    {
      "constant": true,
      "inputs": [
        {
          "name": "",
          "type": "address"
        }
      ],
      "name": "accInfo",
      "outputs": [
        {
          "name": "balance",
          "type": "uint256"
        },
        {
          "name": "isVerified",
          "type": "bool"
        }
      ],
      "payable": false,
      "stateMutability": "view",
      "type": "function"
    },
    {
      "constant": true,
      "inputs": [],
      "name": "decimals",
      "outputs": [
        {
          "name": "",
          "type": "uint8"
        }
      ],
      "payable": false,
      "stateMutability": "view",
      "type": "function"
    },
    {
      "constant": true,
      "inputs": [],
      "name": "symbol",
      "outputs": [
        {
          "name": "",
          "type": "string"
        }
      ],
      "payable": false,
      "stateMutability": "view",
      "type": "function"
    },
    {
      "constant": true,
      "inputs": [],
      "name": "_owner",
      "outputs": [
        {
          "name": "",
          "type": "address"
        }
      ],
      "payable": false,
      "stateMutability": "view",
      "type": "function"
    },
    {
      "inputs": [],
      "payable": false,
      "stateMutability": "nonpayable",
      "type": "constructor"
    },
    {
      "payable": true,
      "stateMutability": "payable",
      "type": "fallback"
    },
    {
      "anonymous": false,
      "inputs": [
        {
          "indexed": true,
          "name": "from",
          "type": "address"
        },
        {
          "indexed": true,
          "name": "to",
          "type": "address"
        },
        {
          "indexed": false,
          "name": "value",
          "type": "uint256"
        }
      ],
      "name": "Transfer",
      "type": "event"
    },
    {
      "anonymous": false,
      "inputs": [
        {
          "indexed": true,
          "name": "from",
          "type": "address"
        },
        {
          "indexed": false,
          "name": "value",
          "type": "uint256"
        }
      ],
      "name": "Mint",
      "type": "event"
    },
    {
      "anonymous": false,
      "inputs": [
        {
          "indexed": true,
          "name": "from",
          "type": "address"
        },
        {
          "indexed": false,
          "name": "value",
          "type": "uint256"
        }
      ],
      "name": "Burn",
      "type": "event"
    },
    {
      "anonymous": false,
      "inputs": [
        {
          "indexed": true,
          "name": "who",
          "type": "address"
        },
        {
          "indexed": false,
          "name": "state",
          "type": "bool"
        }
      ],
      "name": "Verify",
      "type": "event"
    },
    {
      "anonymous": false,
      "inputs": [
        {
          "indexed": true,
          "name": "owner",
          "type": "address"
        },
        {
          "indexed": true,
          "name": "spender",
          "type": "address"
        },
        {
          "indexed": false,
          "name": "value",
          "type": "uint256"
        }
      ],
      "name": "Approval",
      "type": "event"
    },
    {
      "constant": true,
      "inputs": [],
      "name": "totalSupply",
      "outputs": [
        {
          "name": "",
          "type": "uint256"
        }
      ],
      "payable": false,
      "stateMutability": "view",
      "type": "function"
    },
    {
      "constant": true,
      "inputs": [
        {
          "name": "who",
          "type": "address"
        }
      ],
      "name": "balanceOf",
      "outputs": [
        {
          "name": "",
          "type": "uint256"
        }
      ],
      "payable": false,
      "stateMutability": "view",
      "type": "function"
    },
    {
      "constant": true,
      "inputs": [
        {
          "name": "owner",
          "type": "address"
        },
        {
          "name": "spender",
          "type": "address"
        }
      ],
      "name": "allowance",
      "outputs": [
        {
          "name": "",
          "type": "uint256"
        }
      ],
      "payable": false,
      "stateMutability": "view",
      "type": "function"
    },
    {
      "constant": false,
      "inputs": [
        {
          "name": "_newOwner",
          "type": "address"
        }
      ],
      "name": "changeOwner",
      "outputs": [],
      "payable": false,
      "stateMutability": "nonpayable",
      "type": "function"
    },
    {
      "constant": false,
      "inputs": [
        {
          "name": "_account",
          "type": "address"
        }
      ],
      "name": "verify",
      "outputs": [],
      "payable": false,
      "stateMutability": "nonpayable",
      "type": "function"
    },
    {
      "constant": false,
      "inputs": [
        {
          "name": "_account",
          "type": "address"
        }
      ],
      "name": "unverify",
      "outputs": [],
      "payable": false,
      "stateMutability": "nonpayable",
      "type": "function"
    },
    {
      "constant": false,
      "inputs": [
        {
          "name": "spender",
          "type": "address"
        },
        {
          "name": "value",
          "type": "uint256"
        }
      ],
      "name": "approve",
      "outputs": [
        {
          "name": "",
          "type": "bool"
        }
      ],
      "payable": false,
      "stateMutability": "nonpayable",
      "type": "function"
    },
    {
      "constant": false,
      "inputs": [
        {
          "name": "from",
          "type": "address"
        },
        {
          "name": "to",
          "type": "address"
        },
        {
          "name": "value",
          "type": "uint256"
        }
      ],
      "name": "transferFrom",
      "outputs": [
        {
          "name": "",
          "type": "bool"
        }
      ],
      "payable": false,
      "stateMutability": "nonpayable",
      "type": "function"
    },
    {
      "constant": false,
      "inputs": [
        {
          "name": "to",
          "type": "address"
        },
        {
          "name": "value",
          "type": "uint256"
        }
      ],
      "name": "transfer",
      "outputs": [
        {
          "name": "success",
          "type": "bool"
        }
      ],
      "payable": false,
      "stateMutability": "nonpayable",
      "type": "function"
    },
    {
      "constant": false,
      "inputs": [
        {
          "name": "value",
          "type": "uint256"
        },
        {
          "name": "buyer",
          "type": "address"
        }
      ],
      "name": "buy",
      "outputs": [
        {
          "name": "success",
          "type": "bool"
        }
      ],
      "payable": false,
      "stateMutability": "nonpayable",
      "type": "function"
    },
    {
      "constant": false,
      "inputs": [
        {
          "name": "value",
          "type": "uint256"
        },
        {
          "name": "seller",
          "type": "address"
        }
      ],
      "name": "sell",
      "outputs": [
        {
          "name": "success",
          "type": "bool"
        }
      ],
      "payable": false,
      "stateMutability": "nonpayable",
      "type": "function"
    }
  ],
  "bytecode": "0x60806040526012600360006101000a81548160ff021916908360ff1602179055503480156200002d57600080fd5b50336000806101000a81548173ffffffffffffffffffffffffffffffffffffffff021916908373ffffffffffffffffffffffffffffffffffffffff16021790555060006004819055506000600560003373ffffffffffffffffffffffffffffffffffffffff1673ffffffffffffffffffffffffffffffffffffffff168152602001908152602001600020600001819055506001600560003373ffffffffffffffffffffffffffffffffffffffff1673ffffffffffffffffffffffffffffffffffffffff16815260200190815260200160002060010160006101000a81548160ff0219169083151502179055506040805190810160405280600981526020017f47474320546f6b656e00000000000000000000000000000000000000000000008152506001908051906020019062000166929190620001bb565b506040805190810160405280600381526020017f474743000000000000000000000000000000000000000000000000000000000081525060029080519060200190620001b4929190620001bb565b506200026a565b828054600181600116156101000203166002900490600052602060002090601f016020900481019282601f10620001fe57805160ff19168380011785556200022f565b828001600101855582156200022f579182015b828111156200022e57825182559160200191906001019062000211565b5b5090506200023e919062000242565b5090565b6200026791905b808211156200026357600081600090555060010162000249565b5090565b90565b611fb8806200027a6000396000f3fe6080604052600436106100e6576000357c0100000000000000000000000000000000000000000000000000000000900463ffffffff16806306fdde0314610154578063095ea7b3146101e457806318160ddd146102575780631adfa4571461028257806323b872dd146102f2578063313ce567146103855780634189a68e146103b657806363a9c3d71461042957806370a082311461047a5780637deb6025146104df57806395d89b4114610552578063a6f9dae1146105e2578063a9059cbb14610633578063b2bdfa7b146106a6578063dd62ed3e146106fd578063e3f8adcd14610782575b6040517f08c379a000000000000000000000000000000000000000000000000000000000815260040180806020018281038252600b8152602001807f4e6f742070617961626c6500000000000000000000000000000000000000000081525060200191505060405180910390fd5b34801561016057600080fd5b506101696107d3565b6040518080602001828103825283818151815260200191508051906020019080838360005b838110156101a957808201518184015260208101905061018e565b50505050905090810190601f1680156101d65780820380516001836020036101000a031916815260200191505b509250505060405180910390f35b3480156101f057600080fd5b5061023d6004803603604081101561020757600080fd5b81019080803573ffffffffffffffffffffffffffffffffffffffff16906020019092919080359060200190929190505050610871565b604051808215151515815260200191505060405180910390f35b34801561026357600080fd5b5061026c610888565b6040518082815260200191505060405180910390f35b34801561028e57600080fd5b506102d1600480360360208110156102a557600080fd5b81019080803573ffffffffffffffffffffffffffffffffffffffff169060200190929190505050610892565b60405180838152602001821515151581526020019250505060405180910390f35b3480156102fe57600080fd5b5061036b6004803603606081101561031557600080fd5b81019080803573ffffffffffffffffffffffffffffffffffffffff169060200190929190803573ffffffffffffffffffffffffffffffffffffffff169060200190929190803590602001909291905050506108c3565b604051808215151515815260200191505060405180910390f35b34801561039157600080fd5b5061039a610974565b604051808260ff1660ff16815260200191505060405180910390f35b3480156103c257600080fd5b5061040f600480360360408110156103d957600080fd5b8101908080359060200190929190803573ffffffffffffffffffffffffffffffffffffffff169060200190929190505050610987565b604051808215151515815260200191505060405180910390f35b34801561043557600080fd5b506104786004803603602081101561044c57600080fd5b81019080803573ffffffffffffffffffffffffffffffffffffffff169060200190929190505050610c04565b005b34801561048657600080fd5b506104c96004803603602081101561049d57600080fd5b81019080803573ffffffffffffffffffffffffffffffffffffffff169060200190929190505050610e1e565b6040518082815260200191505060405180910390f35b3480156104eb57600080fd5b506105386004803603604081101561050257600080fd5b8101908080359060200190929190803573ffffffffffffffffffffffffffffffffffffffff169060200190929190505050610e6a565b604051808215151515815260200191505060405180910390f35b34801561055e57600080fd5b5061056761110b565b6040518080602001828103825283818151815260200191508051906020019080838360005b838110156105a757808201518184015260208101905061058c565b50505050905090810190601f1680156105d45780820380516001836020036101000a031916815260200191505b509250505060405180910390f35b3480156105ee57600080fd5b506106316004803603602081101561060557600080fd5b81019080803573ffffffffffffffffffffffffffffffffffffffff1690602001909291905050506111a9565b005b34801561063f57600080fd5b5061068c6004803603604081101561065657600080fd5b81019080803573ffffffffffffffffffffffffffffffffffffffff16906020019092919080359060200190929190505050611355565b604051808215151515815260200191505060405180910390f35b3480156106b257600080fd5b506106bb611410565b604051808273ffffffffffffffffffffffffffffffffffffffff1673ffffffffffffffffffffffffffffffffffffffff16815260200191505060405180910390f35b34801561070957600080fd5b5061076c6004803603604081101561072057600080fd5b81019080803573ffffffffffffffffffffffffffffffffffffffff169060200190929190803573ffffffffffffffffffffffffffffffffffffffff169060200190929190505050611435565b6040518082815260200191505060405180910390f35b34801561078e57600080fd5b506107d1600480360360208110156107a557600080fd5b81019080803573ffffffffffffffffffffffffffffffffffffffff1690602001909291905050506114bc565b005b60018054600181600116156101000203166002900480601f0160208091040260200160405190810160405280929190818152602001828054600181600116156101000203166002900480156108695780601f1061083e57610100808354040283529160200191610869565b820191906000526020600020905b81548152906001019060200180831161084c57829003601f168201915b505050505081565b600061087e3384846116d6565b6001905092915050565b6000600454905090565b60056020528060005260406000206000915090508060000154908060010160009054906101000a900460ff16905082565b60006108d084848461189e565b610969843361096485600660008a73ffffffffffffffffffffffffffffffffffffffff1673ffffffffffffffffffffffffffffffffffffffff16815260200190815260200160002060003373ffffffffffffffffffffffffffffffffffffffff1673ffffffffffffffffffffffffffffffffffffffff16815260200190815260200160002054611d9090919063ffffffff16565b6116d6565b600190509392505050565b600360009054906101000a900460ff1681565b60008160011515600560008373ffffffffffffffffffffffffffffffffffffffff1673ffffffffffffffffffffffffffffffffffffffff16815260200190815260200160002060010160009054906101000a900460ff161515141515610a55576040517f08c379a00000000000000000000000000000000000000000000000000000000081526004018080602001828103825260178152602001807f4163636f756e74206973206e6f7420766572696669656400000000000000000081525060200191505060405180910390fd5b6000809054906101000a900473ffffffffffffffffffffffffffffffffffffffff1673ffffffffffffffffffffffffffffffffffffffff163373ffffffffffffffffffffffffffffffffffffffff16141515610b19576040517f08c379a00000000000000000000000000000000000000000000000000000000081526004018080602001828103825260168152602001807f53656e646572206e6f7420617574686f72697a65642e0000000000000000000081525060200191505060405180910390fd5b83600560008573ffffffffffffffffffffffffffffffffffffffff1673ffffffffffffffffffffffffffffffffffffffff1681526020019081526020016000206000015410151515610bd3576040517f08c379a00000000000000000000000000000000000000000000000000000000081526004018080602001828103825260128152602001807f496e73756666696369656e742066756e6473000000000000000000000000000081525060200191505060405180910390fd5b610be884600454611d9090919063ffffffff16565b600481905550610bf88484611db2565b50600191505092915050565b6000809054906101000a900473ffffffffffffffffffffffffffffffffffffffff1673ffffffffffffffffffffffffffffffffffffffff163373ffffffffffffffffffffffffffffffffffffffff16141515610cc8576040517f08c379a00000000000000000000000000000000000000000000000000000000081526004018080602001828103825260168152602001807f53656e646572206e6f7420617574686f72697a65642e0000000000000000000081525060200191505060405180910390fd5b600073ffffffffffffffffffffffffffffffffffffffff168173ffffffffffffffffffffffffffffffffffffffff1614151515610d6d576040517f08c379a000000000000000000000000000000000000000000000000000000000815260040180806020018281038252600f8152602001807f496e76616c69642061646472657373000000000000000000000000000000000081525060200191505060405180910390fd5b6001600560008373ffffffffffffffffffffffffffffffffffffffff1673ffffffffffffffffffffffffffffffffffffffff16815260200190815260200160002060010160006101000a81548160ff0219169083151502179055508073ffffffffffffffffffffffffffffffffffffffff167fc39f49fc22f7d1922b75a440342391c3ce5200f33659fb84711c2b8addefd6bf6001604051808215151515815260200191505060405180910390a250565b6000600560008373ffffffffffffffffffffffffffffffffffffffff1673ffffffffffffffffffffffffffffffffffffffff168152602001908152602001600020600001549050919050565b60008160011515600560008373ffffffffffffffffffffffffffffffffffffffff1673ffffffffffffffffffffffffffffffffffffffff16815260200190815260200160002060010160009054906101000a900460ff161515141515610f38576040517f08c379a00000000000000000000000000000000000000000000000000000000081526004018080602001828103825260178152602001807f4163636f756e74206973206e6f7420766572696669656400000000000000000081525060200191505060405180910390fd5b6000809054906101000a900473ffffffffffffffffffffffffffffffffffffffff1673ffffffffffffffffffffffffffffffffffffffff163373ffffffffffffffffffffffffffffffffffffffff16141515610ffc576040517f08c379a00000000000000000000000000000000000000000000000000000000081526004018080602001828103825260168152602001807f53656e646572206e6f7420617574686f72697a65642e0000000000000000000081525060200191505060405180910390fd5b61101184600454611f6b90919063ffffffff16565b60048190555061106c84600560008673ffffffffffffffffffffffffffffffffffffffff1673ffffffffffffffffffffffffffffffffffffffff16815260200190815260200160002060000154611f6b90919063ffffffff16565b600560008573ffffffffffffffffffffffffffffffffffffffff1673ffffffffffffffffffffffffffffffffffffffff168152602001908152602001600020600001819055508273ffffffffffffffffffffffffffffffffffffffff167f0f6798a560793a54c3bcfe86a93cde1e73087d944c0ea20544137d4121396885856040518082815260200191505060405180910390a2600191505092915050565b60028054600181600116156101000203166002900480601f0160208091040260200160405190810160405280929190818152602001828054600181600116156101000203166002900480156111a15780601f10611176576101008083540402835291602001916111a1565b820191906000526020600020905b81548152906001019060200180831161118457829003601f168201915b505050505081565b6000809054906101000a900473ffffffffffffffffffffffffffffffffffffffff1673ffffffffffffffffffffffffffffffffffffffff163373ffffffffffffffffffffffffffffffffffffffff1614151561126d576040517f08c379a00000000000000000000000000000000000000000000000000000000081526004018080602001828103825260168152602001807f53656e646572206e6f7420617574686f72697a65642e0000000000000000000081525060200191505060405180910390fd5b600073ffffffffffffffffffffffffffffffffffffffff168173ffffffffffffffffffffffffffffffffffffffff1614151515611312576040517f08c379a000000000000000000000000000000000000000000000000000000000815260040180806020018281038252600f8152602001807f496e76616c69642061646472657373000000000000000000000000000000000081525060200191505060405180910390fd5b806000806101000a81548173ffffffffffffffffffffffffffffffffffffffff021916908373ffffffffffffffffffffffffffffffffffffffff16021790555050565b60008073ffffffffffffffffffffffffffffffffffffffff168373ffffffffffffffffffffffffffffffffffffffff16141515156113fb576040517f08c379a000000000000000000000000000000000000000000000000000000000815260040180806020018281038252600f8152602001807f496e76616c69642061646472657373000000000000000000000000000000000081525060200191505060405180910390fd5b61140633848461189e565b6001905092915050565b6000809054906101000a900473ffffffffffffffffffffffffffffffffffffffff1681565b6000600660008473ffffffffffffffffffffffffffffffffffffffff1673ffffffffffffffffffffffffffffffffffffffff16815260200190815260200160002060008373ffffffffffffffffffffffffffffffffffffffff1673ffffffffffffffffffffffffffffffffffffffff16815260200190815260200160002054905092915050565b6000809054906101000a900473ffffffffffffffffffffffffffffffffffffffff1673ffffffffffffffffffffffffffffffffffffffff163373ffffffffffffffffffffffffffffffffffffffff16141515611580576040517f08c379a00000000000000000000000000000000000000000000000000000000081526004018080602001828103825260168152602001807f53656e646572206e6f7420617574686f72697a65642e0000000000000000000081525060200191505060405180910390fd5b600073ffffffffffffffffffffffffffffffffffffffff168173ffffffffffffffffffffffffffffffffffffffff1614151515611625576040517f08c379a000000000000000000000000000000000000000000000000000000000815260040180806020018281038252600f8152602001807f496e76616c69642061646472657373000000000000000000000000000000000081525060200191505060405180910390fd5b6000600560008373ffffffffffffffffffffffffffffffffffffffff1673ffffffffffffffffffffffffffffffffffffffff16815260200190815260200160002060010160006101000a81548160ff0219169083151502179055508073ffffffffffffffffffffffffffffffffffffffff167fc39f49fc22f7d1922b75a440342391c3ce5200f33659fb84711c2b8addefd6bf6000604051808215151515815260200191505060405180910390a250565b600073ffffffffffffffffffffffffffffffffffffffff168273ffffffffffffffffffffffffffffffffffffffff1614158061173f5750600073ffffffffffffffffffffffffffffffffffffffff168373ffffffffffffffffffffffffffffffffffffffff1614155b15156117b3576040517f08c379a000000000000000000000000000000000000000000000000000000000815260040180806020018281038252600f8152602001807f496e76616c69642061646472657373000000000000000000000000000000000081525060200191505060405180910390fd5b80600660008573ffffffffffffffffffffffffffffffffffffffff1673ffffffffffffffffffffffffffffffffffffffff16815260200190815260200160002060008473ffffffffffffffffffffffffffffffffffffffff1673ffffffffffffffffffffffffffffffffffffffff168152602001908152602001600020819055508173ffffffffffffffffffffffffffffffffffffffff168373ffffffffffffffffffffffffffffffffffffffff167f8c5be1e5ebec7d5bd14f71427d1e84f3dd0314c0f7b2291e5b200ac8c7c3b925836040518082815260200191505060405180910390a3505050565b8260011515600560008373ffffffffffffffffffffffffffffffffffffffff1673ffffffffffffffffffffffffffffffffffffffff16815260200190815260200160002060010160009054906101000a900460ff16151514151561196a576040517f08c379a00000000000000000000000000000000000000000000000000000000081526004018080602001828103825260178152602001807f4163636f756e74206973206e6f7420766572696669656400000000000000000081525060200191505060405180910390fd5b8260011515600560008373ffffffffffffffffffffffffffffffffffffffff1673ffffffffffffffffffffffffffffffffffffffff16815260200190815260200160002060010160009054906101000a900460ff161515141515611a36576040517f08c379a00000000000000000000000000000000000000000000000000000000081526004018080602001828103825260178152602001807f4163636f756e74206973206e6f7420766572696669656400000000000000000081525060200191505060405180910390fd5b82600560008773ffffffffffffffffffffffffffffffffffffffff1673ffffffffffffffffffffffffffffffffffffffff1681526020019081526020016000206000015410151515611af0576040517f08c379a000000000000000000000000000000000000000000000000000000000815260040180806020018281038252601d8152602001807f53656e6465722068617320696e73756666696369656e742066756e647300000081525060200191505060405180910390fd5b600560008573ffffffffffffffffffffffffffffffffffffffff1673ffffffffffffffffffffffffffffffffffffffff1681526020019081526020016000206000015483600560008773ffffffffffffffffffffffffffffffffffffffff1673ffffffffffffffffffffffffffffffffffffffff168152602001908152602001600020600001540110151515611bee576040517f08c379a000000000000000000000000000000000000000000000000000000000815260040180806020018281038252600e8152602001807f496e76616c696420616d6f756e7400000000000000000000000000000000000081525060200191505060405180910390fd5b611c4383600560008873ffffffffffffffffffffffffffffffffffffffff1673ffffffffffffffffffffffffffffffffffffffff16815260200190815260200160002060000154611d9090919063ffffffff16565b600560008773ffffffffffffffffffffffffffffffffffffffff1673ffffffffffffffffffffffffffffffffffffffff16815260200190815260200160002060000181905550611cde83600560008773ffffffffffffffffffffffffffffffffffffffff1673ffffffffffffffffffffffffffffffffffffffff16815260200190815260200160002060000154611f6b90919063ffffffff16565b600560008673ffffffffffffffffffffffffffffffffffffffff1673ffffffffffffffffffffffffffffffffffffffff168152602001908152602001600020600001819055508373ffffffffffffffffffffffffffffffffffffffff168573ffffffffffffffffffffffffffffffffffffffff167fddf252ad1be2c89b69c2b068fc378daa952ba7f163c4a11628f55a4df523b3ef856040518082815260200191505060405180910390a35050505050565b6000828211151515611da157600080fd5b600082840390508091505092915050565b60008060009054906101000a900473ffffffffffffffffffffffffffffffffffffffff1673ffffffffffffffffffffffffffffffffffffffff163373ffffffffffffffffffffffffffffffffffffffff16141515611e78576040517f08c379a00000000000000000000000000000000000000000000000000000000081526004018080602001828103825260168152602001807f53656e646572206e6f7420617574686f72697a65642e0000000000000000000081525060200191505060405180910390fd5b611ecd83600560008573ffffffffffffffffffffffffffffffffffffffff1673ffffffffffffffffffffffffffffffffffffffff16815260200190815260200160002060000154611d9090919063ffffffff16565b600560008473ffffffffffffffffffffffffffffffffffffffff1673ffffffffffffffffffffffffffffffffffffffff168152602001908152602001600020600001819055508173ffffffffffffffffffffffffffffffffffffffff167fcc16f5dbb4873280815c1ee09dbd06736cffcc184412cf7a71a0fdb75d397ca5846040518082815260200191505060405180910390a26001905092915050565b6000808284019050838110151515611f8257600080fd5b809150509291505056fea165627a7a723058200e5aa6f35a0db0f3fc2476b2c4842dac4f31d72f2fd8ec3fbe9db9ae4ee5b47a0029",
  "source": "pragma solidity 0.5.0;\n\nimport \"./IERC20.sol\";\nimport \"./SafeMath.sol\";\n\ncontract GGCToken is IERC20 {\n    using SafeMath for uint256;\n\n    // Semi Standard ERC-20 Token Contract:\n    address public _owner;\n    string public name;\n    string public symbol;\n    uint8 public decimals = 18;\n    uint256 private _totalSupply;\n\n    struct account {\n        uint256 balance;\n        bool isVerified;\n    }\n\n    mapping (address => account) public accInfo;\n    mapping (address => mapping (address => uint256)) private _allowed;\n\n    event Transfer(address indexed from, address indexed to, uint256 value);\n    event Mint(address indexed from, uint256 value);\n    event Burn(address indexed from, uint256 value);\n    event Verify(address indexed who, bool state);\n\n    event Approval(address indexed owner, address indexed spender, uint256 value);\n\n    modifier onlyBy(address _account) {\n        require(msg.sender == _account, \"Sender not authorized.\");\n        _;\n    }\n\n    modifier onlyOwner() {\n        require(msg.sender == _owner, \"Sender not authorized.\");\n        _;\n    }\n\n    modifier onlyVerifed(address _account) {\n        require(accInfo[_account].isVerified == true, \"Account is not verified\");  \n        _;\n    }\n\n    function totalSupply() external view returns (uint256) {\n        return _totalSupply;\n    }\n\n    function balanceOf(address who) external view returns (uint256) {\n        return accInfo[who].balance;\n    }\n\n    function allowance(address owner, address spender) public view returns (uint256) {\n        return _allowed[owner][spender];\n    }\n\n    /**\n     * Constructor function\n     *\n     * Initializes contract with initial supply tokens to the creator of the contract\n     */\n    constructor() public {\n        _owner = msg.sender;                         // Make the creator the owner\n        _totalSupply = 0;  // Update total supply with the decimal amount\n        \n        accInfo[msg.sender].balance = 0;  // Give the creator all initial tokens\n        accInfo[msg.sender].isVerified = true;   // Give the creator whitelist privileges\n        \n        name = \"GGC Token\";                         // Set the name for display purposes\n        symbol = \"GGC\";                             // Set the symbol for display purposes\n    }\n\n    /**\n     * Change Contract Owner\n     */\n    function changeOwner(address _newOwner) external onlyOwner() {\n        require(_newOwner != address(0), \"Invalid address\");\n        _owner = _newOwner;\n    }\n\n    /**\n     * Whitelist account address\n     */\n    function verify(address _account) external onlyOwner() {\n        require(_account != address(0), \"Invalid address\");\n        accInfo[_account].isVerified = true;\n        emit Verify(_account, true);\n    }\n\n    /**\n     * Blacklist account address\n     */\n    function unverify(address _account) external onlyOwner() {\n        require(_account != address(0), \"Invalid address\");\n        accInfo[_account].isVerified = false;\n        emit Verify(_account, false);\n    }\n\n    function approve(address spender, uint256 value) public returns (bool) {\n        _approve(msg.sender, spender, value);\n        return true;\n    }\n\n    function _approve(address owner, address spender, uint256 value) internal {\n        require(spender != address(0) || owner != address(0), \"Invalid address\");\n\n        _allowed[owner][spender] = value;\n        emit Approval(owner, spender, value);\n    }\n\n    function transferFrom(address from, address to, uint256 value) public returns (bool) {\n        _transfer(from, to, value);\n        _approve(from, msg.sender, _allowed[from][msg.sender].sub(value));\n        return true;\n    }\n\n    /**\n     * Internal transfer, only can be called by this contract\n     */\n    function _transfer(address _from, address _to, uint _value) onlyVerifed(_from) onlyVerifed(_to) internal {\n        require(accInfo[_from].balance >= _value, \"Sender has insufficient funds\");                                  // Check if the sender has enough                               // Check if the receiver is whitelisted\n        require(accInfo[_to].balance + _value >= accInfo[_to].balance, \"Invalid amount\");            // Check for overflows\n        \n        accInfo[_from].balance = accInfo[_from].balance.sub(_value);                                           // Subtract from the sender\n        accInfo[_to].balance = accInfo[_to].balance.add(_value);                                             // Add the same to the recipient\n        \n        emit Transfer(_from, _to, _value);                                         // Emits a Transfer Event\n    }\n\n    /**\n     * Transfer tokens\n     *\n     * Send `value` tokens to `to` from your account\n     *\n     * @param to The address of the recipient\n     * @param value the amount to send\n     */\n    function transfer(address to, uint256 value) external returns (bool success) {\n        require(to != address(0), \"Invalid address\");\n        _transfer(msg.sender, to, value);\n        return true;\n    }\n\n    /**\n     * Buy tokens\n     *\n     * Add `value` tokens to the system irreversibly\n     *\n     * @param value the amount of money to buy\n     * @param buyer the address of the Buyer\n     */\n    function buy(uint256 value, address buyer) onlyVerifed(buyer) onlyOwner() external returns (bool success) {        \n        _totalSupply = _totalSupply.add(value);                            // Updates totalSupply\n        accInfo[buyer].balance = accInfo[buyer].balance.add(value);               // Updates Buyer Account\n        \n        emit Mint(buyer, value);                    // Emits a Mint Event         \n        return true;\n    }\n\n    /**\n     * Sell tokens\n     *\n     * Remove `value` tokens to the system irreversibly\n     *\n     * @param value the amount of money to sell\n     * @param seller the address of the Seller\n     */\n    function sell(uint256 value, address seller) onlyVerifed(seller) onlyOwner() external returns (bool success) {\n        require(accInfo[seller].balance >= value, \"Insufficient funds\");      // Check if the account has enough\n        \n        _totalSupply = _totalSupply.sub(value);                             // Updates totalSupply\n        _burnFor(value, seller);                        // Updates Seller Account\n        \n        return true;\n    }\n\n    /**\n     * Destroy tokens of Another Account\n     *\n     * Remove `value` tokens from the system irreversibly\n     *\n     * @param value the amount of money to burn\n     * @param _for the address of the owner of the tokens to burn\n     */\n    function _burnFor(uint256 value, address _for) onlyOwner() internal returns (bool success) {\n        accInfo[_for].balance = accInfo[_for].balance.sub(value);            // Subtract from the sender\n        \n        emit Burn(_for, value);\n        return true;\n    }\n\n    function() external payable {\n        revert(\"Not payable\");\n    }\n}",
  "sourcePath": "/home/lucascullen/GitHub/BitcoinBrisbane/GoldGramCoin/contracts/GGCToken.sol",
  "compiler": {
    "name": "solc",
    "version": "0.5.0+commit.1d4f565a.Emscripten.clang"
  },
  "schemaVersion": "3.0.1",
  "updatedAt": "2019-05-05T05:49:05.566Z",
  "devdoc": {
    "methods": {
      "buy(uint256,address)": {
        "params": {
          "buyer": "the address of the Buyer",
          "value": "the amount of money to buy"
        }
      },
      "sell(uint256,address)": {
        "params": {
          "seller": "the address of the Seller",
          "value": "the amount of money to sell"
        }
      },
      "transfer(address,uint256)": {
        "params": {
          "to": "The address of the recipient",
          "value": "the amount to send"
        }
      }
    }
  },
  "userdoc": {
    "methods": {
      "buy(uint256,address)": {
        "notice": "Buy tokens     * Add `value` tokens to the system irreversibly"
      },
      "changeOwner(address)": {
        "notice": "Change Contract Owner"
      },
      "constructor": "Constructor function     * Initializes contract with initial supply tokens to the creator of the contract",
      "sell(uint256,address)": {
        "notice": "Sell tokens     * Remove `value` tokens to the system irreversibly"
      },
      "transfer(address,uint256)": {
        "notice": "Transfer tokens     * Send `value` tokens to `to` from your account"
      },
      "unverify(address)": {
        "notice": "Blacklist account address"
      },
      "verify(address)": {
        "notice": "Whitelist account address"
      }
    }
  }
}