{
  "contractName": "Repository",
  "abi": [
    {
      "constant": true,
      "inputs": [
        {
          "name": "",
          "type": "uint256"
        }
      ],
      "name": "_inventory",
      "outputs": [
        {
          "name": "amount",
          "type": "uint256"
        },
        {
          "name": "serial",
          "type": "bytes32"
        }
      ],
      "payable": false,
      "stateMutability": "view",
      "type": "function"
    },
    {
      "constant": true,
      "inputs": [],
      "name": "_writer",
      "outputs": [
        {
          "name": "",
          "type": "address"
        }
      ],
      "payable": false,
      "stateMutability": "view",
      "type": "function"
    },
    {
      "constant": true,
      "inputs": [],
      "name": "_owner",
      "outputs": [
        {
          "name": "",
          "type": "address"
        }
      ],
      "payable": false,
      "stateMutability": "view",
      "type": "function"
    },
    {
      "inputs": [],
      "payable": false,
      "stateMutability": "nonpayable",
      "type": "constructor"
    },
    {
      "constant": true,
      "inputs": [],
      "name": "totalStock",
      "outputs": [
        {
          "name": "",
          "type": "uint256"
        }
      ],
      "payable": false,
      "stateMutability": "view",
      "type": "function"
    },
    {
      "constant": false,
      "inputs": [
        {
          "name": "amount",
          "type": "uint256"
        },
        {
          "name": "serial",
          "type": "bytes32"
        }
      ],
      "name": "add",
      "outputs": [],
      "payable": false,
      "stateMutability": "nonpayable",
      "type": "function"
    },
    {
      "constant": false,
      "inputs": [
        {
          "name": "index",
          "type": "uint256"
        }
      ],
      "name": "remove",
      "outputs": [],
      "payable": false,
      "stateMutability": "nonpayable",
      "type": "function"
    },
    {
      "constant": false,
      "inputs": [
        {
          "name": "amount",
          "type": "uint256"
        },
        {
          "name": "serial",
          "type": "bytes32"
        },
        {
          "name": "index",
          "type": "uint256"
        }
      ],
      "name": "update",
      "outputs": [],
      "payable": false,
      "stateMutability": "nonpayable",
      "type": "function"
    },
    {
      "constant": false,
      "inputs": [
        {
          "name": "writer",
          "type": "address"
        }
      ],
      "name": "updateWriter",
      "outputs": [],
      "payable": false,
      "stateMutability": "nonpayable",
      "type": "function"
    }
  ],
  "bytecode": "0x608060405234801561001057600080fd5b50336000806101000a81548173ffffffffffffffffffffffffffffffffffffffff021916908373ffffffffffffffffffffffffffffffffffffffff16021790555033600160006101000a81548173ffffffffffffffffffffffffffffffffffffffff021916908373ffffffffffffffffffffffffffffffffffffffff16021790555061090e806100a16000396000f3fe60806040526004361061008e576000357c0100000000000000000000000000000000000000000000000000000000900463ffffffff1680631905359a146100935780634c04896f146100e95780634cc8221514610140578063764e971f1461017b578063ad26c51b146101c0578063b1a951da14610211578063b2bdfa7b1461023c578063fec9455e14610293575b600080fd5b34801561009f57600080fd5b506100cc600480360360208110156100b657600080fd5b81019080803590602001909291905050506102e2565b604051808381526020018281526020019250505060405180910390f35b3480156100f557600080fd5b506100fe610315565b604051808273ffffffffffffffffffffffffffffffffffffffff1673ffffffffffffffffffffffffffffffffffffffff16815260200191505060405180910390f35b34801561014c57600080fd5b506101796004803603602081101561016357600080fd5b810190808035906020019092919050505061033b565b005b34801561018757600080fd5b506101be6004803603604081101561019e57600080fd5b810190808035906020019092919080359060200190929190505050610433565b005b3480156101cc57600080fd5b5061020f600480360360208110156101e357600080fd5b81019080803573ffffffffffffffffffffffffffffffffffffffff169060200190929190505050610555565b005b34801561021d57600080fd5b50610226610724565b6040518082815260200191505060405180910390f35b34801561024857600080fd5b50610251610788565b604051808273ffffffffffffffffffffffffffffffffffffffff1673ffffffffffffffffffffffffffffffffffffffff16815260200191505060405180910390f35b34801561029f57600080fd5b506102e0600480360360608110156102b657600080fd5b810190808035906020019092919080359060200190929190803590602001909291905050506107ad565b005b6002818154811015156102f157fe5b90600052602060002090600202016000915090508060000154908060010154905082565b600160009054906101000a900473ffffffffffffffffffffffffffffffffffffffff1681565b600160009054906101000a900473ffffffffffffffffffffffffffffffffffffffff1673ffffffffffffffffffffffffffffffffffffffff163373ffffffffffffffffffffffffffffffffffffffff16141515610400576040517f08c379a00000000000000000000000000000000000000000000000000000000081526004018080602001828103825260168152602001807f53656e646572206e6f7420617574686f72697a65642e0000000000000000000081525060200191505060405180910390fd5b60028181548110151561040f57fe5b90600052602060002090600202016000808201600090556001820160009055505050565b600160009054906101000a900473ffffffffffffffffffffffffffffffffffffffff1673ffffffffffffffffffffffffffffffffffffffff163373ffffffffffffffffffffffffffffffffffffffff161415156104f8576040517f08c379a00000000000000000000000000000000000000000000000000000000081526004018080602001828103825260168152602001807f53656e646572206e6f7420617574686f72697a65642e0000000000000000000081525060200191505060405180910390fd5b60026040805190810160405280848152602001838152509080600181540180825580915050906001820390600052602060002090600202016000909192909190915060008201518160000155602082015181600101555050505050565b6000809054906101000a900473ffffffffffffffffffffffffffffffffffffffff1673ffffffffffffffffffffffffffffffffffffffff163373ffffffffffffffffffffffffffffffffffffffff16141515610619576040517f08c379a00000000000000000000000000000000000000000000000000000000081526004018080602001828103825260168152602001807f53656e646572206e6f7420617574686f72697a65642e0000000000000000000081525060200191505060405180910390fd5b600073ffffffffffffffffffffffffffffffffffffffff16600160009054906101000a900473ffffffffffffffffffffffffffffffffffffffff1673ffffffffffffffffffffffffffffffffffffffff16141515156106e0576040517f08c379a000000000000000000000000000000000000000000000000000000000815260040180806020018281038252600f8152602001807f496e76616c69642061646472657373000000000000000000000000000000000081525060200191505060405180910390fd5b80600160006101000a81548173ffffffffffffffffffffffffffffffffffffffff021916908373ffffffffffffffffffffffffffffffffffffffff16021790555050565b6000806000905060008090505b6002805490508110156107805761077160028281548110151561075057fe5b906000526020600020906002020160000154836108c190919063ffffffff16565b91508080600101915050610731565b508091505090565b6000809054906101000a900473ffffffffffffffffffffffffffffffffffffffff1681565b600160009054906101000a900473ffffffffffffffffffffffffffffffffffffffff1673ffffffffffffffffffffffffffffffffffffffff163373ffffffffffffffffffffffffffffffffffffffff16141515610872576040517f08c379a00000000000000000000000000000000000000000000000000000000081526004018080602001828103825260168152602001807f53656e646572206e6f7420617574686f72697a65642e0000000000000000000081525060200191505060405180910390fd5b8260028281548110151561088257fe5b906000526020600020906002020160000181905550816002828154811015156108a757fe5b906000526020600020906002020160010181905550505050565b60008082840190508381101515156108d857600080fd5b809150509291505056fea165627a7a723058209e3f81034d6e71d773f0789ea614925e9d8fd9cb6aefa8a34f3f4188a33d551a0029",
  "source": "pragma solidity = 0.5.0;\n\nimport \"./SafeMath.sol\";\nimport \"./IRepository.sol\";\n\ncontract Repository is IRepository {\n    using SafeMath for uint256;\n\n    address public _owner;\n    address public _writer;\n\n    Stock[] public _inventory;\n\n    function totalStock() external view returns (uint256) {\n        uint256 total = 0;\n\n        for (uint i = 0; i < _inventory.length; i++) {\n            total = total.add(_inventory[i].amount);\n        }\n\n        return total;\n    }\n\n    struct Stock {\n        uint256 amount;\n        bytes32 serial;\n    }\n\n    constructor() public {\n        _owner = msg.sender;\n        _writer = msg.sender;\n    }\n\n    function add(uint256 amount, bytes32 serial) external onlyWriter() {\n        _inventory.push(Stock(amount, serial));\n    }\n\n    function remove(uint256 index) external onlyWriter() {\n        delete _inventory[index];\n    }\n\n    function update(uint256 amount, bytes32 serial, uint256 index) external onlyWriter() {\n        _inventory[index].amount = amount;\n        _inventory[index].serial = serial;\n    }\n\n    function updateWriter(address writer) public onlyOwner() {\n        require(_writer != address(0), \"Invalid address\");\n        _writer = writer;\n    }\n\n    modifier onlyOwner() {\n        require(msg.sender == _owner, \"Sender not authorized.\");\n        _;\n    }\n\n    modifier onlyWriter() {\n        require(msg.sender == _writer, \"Sender not authorized.\");\n        _;\n    }\n}",
  "sourcePath": "/Users/lucascullen/GitHub/BitcoinBrisbane/GoldGramCoin/contracts/Repository.sol",
  "compiler": {
    "name": "solc",
    "version": "0.5.0+commit.1d4f565a.Emscripten.clang"
  },
  "schemaVersion": "3.0.9",
  "updatedAt": "2019-05-10T06:24:46.495Z",
  "devdoc": {
    "methods": {}
  },
  "userdoc": {
    "methods": {}
  }
}